{
  "contractName": "SimpleStorage",
  "abi": [
    {
      "inputs": [
        {
          "name": "s",
          "type": "uint256"
        }
      ],
      "payable": false,
      "stateMutability": "nonpayable",
      "type": "constructor"
    },
    {
      "anonymous": false,
      "inputs": [
        {
          "indexed": false,
          "name": "message",
          "type": "string"
        },
        {
          "indexed": false,
          "name": "newVal",
          "type": "uint256"
        }
      ],
      "name": "Change",
      "type": "event"
    },
    {
      "constant": false,
      "inputs": [
        {
          "name": "x",
          "type": "uint256"
        }
      ],
      "name": "set",
      "outputs": [],
      "payable": false,
      "stateMutability": "nonpayable",
      "type": "function"
    },
    {
      "constant": true,
      "inputs": [],
      "name": "get",
      "outputs": [
        {
          "name": "",
          "type": "uint256"
        }
      ],
      "payable": false,
      "stateMutability": "view",
      "type": "function"
    }
  ],
  "bytecode": "0x608060405234801561001057600080fd5b5060405160208061018e8339810180604052602081101561003057600080fd5b81019080805190602001909291905050508060008190555050610136806100586000396000f3fe608060405234801561001057600080fd5b50600436106100365760003560e01c806360fe47b11461003b5780636d4ce63c14610069575b600080fd5b6100676004803603602081101561005157600080fd5b8101908080359060200190929190505050610087565b005b610071610101565b6040518082815260200191505060405180910390f35b806000819055507fbb1cb5be1009ed69d54a8f3da20ed253be50c4dbbcade4f0a12114dedd9be5d7816040518080602001838152602001828103825260038152602001807f73657400000000000000000000000000000000000000000000000000000000008152506020019250505060405180910390a150565b6000805490509056fea165627a7a72305820be699faf9a6ae5d9a5b168ae460a00767e54a54cb1f30dcba527e3df325136000029",
  "source": "pragma solidity ^0.5.8;\r\n\r\ncontract SimpleStorage {\r\n\r\n    uint storedData;\r\n\r\n    //event Change(string message, uint indexed newVal);\r\n    event Change(string message, uint newVal);\r\n\r\n    constructor (uint s) public {\r\n        storedData = s;\r\n    }\r\n\r\n    function set(uint x) public {\r\n        storedData = x;\r\n        emit Change(\"set\", x);\r\n    }\r\n\r\n    function get() public view returns (uint) {\r\n        return storedData;\r\n    }\r\n\r\n}\r\n",
  "sourcePath": "C:/Users/song/dapp-example/contracts/SimpleStorage.sol",
  "compiler": {
    "name": "solc",
    "version": "0.5.8+commit.23d335f2.Emscripten.clang"
  },
  "schemaVersion": "3.0.19",
  "updatedAt": "2019-12-22T00:57:52.708Z",
  "networkType": "ethereum",
  "devdoc": {
    "methods": {}
  },
  "userdoc": {
    "methods": {}
  }
}